{
  "contractName": "Helloworld",
  "abi": [
    {
      "inputs": [
        {
          "internalType": "string",
          "name": "_message",
          "type": "string"
        }
      ],
      "stateMutability": "nonpayable",
      "type": "constructor"
    },
    {
      "inputs": [],
      "name": "message",
      "outputs": [
        {
          "internalType": "string",
          "name": "",
          "type": "string"
        }
      ],
      "stateMutability": "view",
      "type": "function",
      "constant": true
    },
    {
      "inputs": [],
      "name": "hello",
      "outputs": [
        {
          "internalType": "string",
          "name": "",
          "type": "string"
        }
      ],
      "stateMutability": "view",
      "type": "function",
      "constant": true
    },
    {
      "inputs": [
        {
          "internalType": "string",
          "name": "_message",
          "type": "string"
        }
      ],
      "name": "setMessage",
      "outputs": [],
      "stateMutability": "payable",
      "type": "function",
      "payable": true
    }
  ],
  "bytecode": "0x60806040523480156200001157600080fd5b5060405162000921380380620009218339818101604052810190620000379190620001ba565b80600090805190602001906200004f92919062000098565b5033600160006101000a81548173ffffffffffffffffffffffffffffffffffffffff021916908373ffffffffffffffffffffffffffffffffffffffff160217905550506200036f565b828054620000a69062000294565b90600052602060002090601f016020900481019282620000ca576000855562000116565b82601f10620000e557805160ff191683800117855562000116565b8280016001018555821562000116579182015b8281111562000115578251825591602001919060010190620000f8565b5b50905062000125919062000129565b5090565b5b80821115620001445760008160009055506001016200012a565b5090565b60006200015f620001598462000228565b620001ff565b9050828152602081018484840111156200017857600080fd5b620001858482856200025e565b509392505050565b600082601f8301126200019f57600080fd5b8151620001b184826020860162000148565b91505092915050565b600060208284031215620001cd57600080fd5b600082015167ffffffffffffffff811115620001e857600080fd5b620001f6848285016200018d565b91505092915050565b60006200020b6200021e565b9050620002198282620002ca565b919050565b6000604051905090565b600067ffffffffffffffff8211156200024657620002456200032f565b5b62000251826200035e565b9050602081019050919050565b60005b838110156200027e57808201518184015260208101905062000261565b838111156200028e576000848401525b50505050565b60006002820490506001821680620002ad57607f821691505b60208210811415620002c457620002c362000300565b5b50919050565b620002d5826200035e565b810181811067ffffffffffffffff82111715620002f757620002f66200032f565b5b80604052505050565b7f4e487b7100000000000000000000000000000000000000000000000000000000600052602260045260246000fd5b7f4e487b7100000000000000000000000000000000000000000000000000000000600052604160045260246000fd5b6000601f19601f8301169050919050565b6105a2806200037f6000396000f3fe6080604052600436106100345760003560e01c806319ff1d2114610039578063368b877214610064578063e21f37ce14610080575b600080fd5b34801561004557600080fd5b5061004e6100ab565b60405161005b91906103c4565b60405180910390f35b61007e6004803603810190610079919061034a565b61013d565b005b34801561008c57600080fd5b506100956101b1565b6040516100a291906103c4565b60405180910390f35b6060600080546100ba9061049a565b80601f01602080910402602001604051908101604052809291908181526020018280546100e69061049a565b80156101335780601f1061010857610100808354040283529160200191610133565b820191906000526020600020905b81548152906001019060200180831161011657829003601f168201915b5050505050905090565b600160009054906101000a900473ffffffffffffffffffffffffffffffffffffffff1673ffffffffffffffffffffffffffffffffffffffff163373ffffffffffffffffffffffffffffffffffffffff161461019757600080fd5b80600090805190602001906101ad92919061023f565b5050565b600080546101be9061049a565b80601f01602080910402602001604051908101604052809291908181526020018280546101ea9061049a565b80156102375780601f1061020c57610100808354040283529160200191610237565b820191906000526020600020905b81548152906001019060200180831161021a57829003601f168201915b505050505081565b82805461024b9061049a565b90600052602060002090601f01602090048101928261026d57600085556102b4565b82601f1061028657805160ff19168380011785556102b4565b828001600101855582156102b4579182015b828111156102b3578251825591602001919060010190610298565b5b5090506102c191906102c5565b5090565b5b808211156102de5760008160009055506001016102c6565b5090565b60006102f56102f08461040b565b6103e6565b90508281526020810184848401111561030d57600080fd5b610318848285610458565b509392505050565b600082601f83011261033157600080fd5b81356103418482602086016102e2565b91505092915050565b60006020828403121561035c57600080fd5b600082013567ffffffffffffffff81111561037657600080fd5b61038284828501610320565b91505092915050565b60006103968261043c565b6103a08185610447565b93506103b0818560208601610467565b6103b98161055b565b840191505092915050565b600060208201905081810360008301526103de818461038b565b905092915050565b60006103f0610401565b90506103fc82826104cc565b919050565b6000604051905090565b600067ffffffffffffffff8211156104265761042561052c565b5b61042f8261055b565b9050602081019050919050565b600081519050919050565b600082825260208201905092915050565b82818337600083830152505050565b60005b8381101561048557808201518184015260208101905061046a565b83811115610494576000848401525b50505050565b600060028204905060018216806104b257607f821691505b602082108114156104c6576104c56104fd565b5b50919050565b6104d58261055b565b810181811067ffffffffffffffff821117156104f4576104f361052c565b5b80604052505050565b7f4e487b7100000000000000000000000000000000000000000000000000000000600052602260045260246000fd5b7f4e487b7100000000000000000000000000000000000000000000000000000000600052604160045260246000fd5b6000601f19601f830116905091905056fea26469706673582212201411b5fc6e1e43e4c0fea4e50dfdfa8ed89e0a33c960c96c33f0385da6df25e164736f6c63430008040033",
  "immutableReferences": {},
  "source": "pragma solidity 0.8.4;\r\n\r\ncontract Helloworld {\r\n\r\n    string public message;\r\n    address owner;\r\n\r\n    constructor(string memory _message){\r\n        message = _message;\r\n        owner = msg.sender;\r\n    }\r\n    function hello() public view returns (string memory) {\r\n        return message;\r\n    }\r\n    function setMessage(string memory _message) public payable {\r\n        require(msg.sender == owner);\r\n        message = _message;\r\n    }\r\n}",
  "sourcePath": "C:\\Users\\roopa\\Truffle\\contracts\\Helloworld.sol",
  "compiler": {
    "name": "solc",
    "version": "0.8.4+commit.c7e474f2.Emscripten.clang"
  },
  "schemaVersion": "3.4.10",
  "updatedAt": "2022-10-19T01:12:03.560Z",
  "networkType": "ethereum",
  "devdoc": {
    "kind": "dev",
    "methods": {},
    "version": 1
  },
  "userdoc": {
    "kind": "user",
    "methods": {},
    "version": 1
  }
}